{
  "address": "0xb0C56317E9cEBc6E0f7A59458a83D0A9ccC3e955",
  "abi": [
    {
      "inputs": [
        {
          "internalType": "string",
          "name": "name",
          "type": "string"
        },
        {
          "internalType": "string",
          "name": "symbol",
          "type": "string"
        },
        {
          "internalType": "string",
          "name": "_metadataBase",
          "type": "string"
        },
        {
          "internalType": "uint16",
          "name": "_maxAvailableId",
          "type": "uint16"
        }
      ],
      "stateMutability": "nonpayable",
      "type": "constructor"
    },
    {
      "anonymous": false,
      "inputs": [
        {
          "indexed": true,
          "internalType": "address",
          "name": "owner",
          "type": "address"
        },
        {
          "indexed": true,
          "internalType": "address",
          "name": "approved",
          "type": "address"
        },
        {
          "indexed": true,
          "internalType": "uint256",
          "name": "tokenId",
          "type": "uint256"
        }
      ],
      "name": "Approval",
      "type": "event"
    },
    {
      "anonymous": false,
      "inputs": [
        {
          "indexed": true,
          "internalType": "address",
          "name": "owner",
          "type": "address"
        },
        {
          "indexed": true,
          "internalType": "address",
          "name": "operator",
          "type": "address"
        },
        {
          "indexed": false,
          "internalType": "bool",
          "name": "approved",
          "type": "bool"
        }
      ],
      "name": "ApprovalForAll",
      "type": "event"
    },
    {
      "anonymous": false,
      "inputs": [
        {
          "indexed": true,
          "internalType": "address",
          "name": "previousOwner",
          "type": "address"
        },
        {
          "indexed": true,
          "internalType": "address",
          "name": "newOwner",
          "type": "address"
        }
      ],
      "name": "OwnershipTransferred",
      "type": "event"
    },
    {
      "anonymous": false,
      "inputs": [
        {
          "indexed": true,
          "internalType": "address",
          "name": "from",
          "type": "address"
        },
        {
          "indexed": true,
          "internalType": "address",
          "name": "to",
          "type": "address"
        },
        {
          "indexed": true,
          "internalType": "uint256",
          "name": "tokenId",
          "type": "uint256"
        }
      ],
      "name": "Transfer",
      "type": "event"
    },
    {
      "inputs": [
        {
          "internalType": "address",
          "name": "to",
          "type": "address"
        },
        {
          "internalType": "uint256",
          "name": "tokenId",
          "type": "uint256"
        }
      ],
      "name": "approve",
      "outputs": [],
      "stateMutability": "nonpayable",
      "type": "function"
    },
    {
      "inputs": [
        {
          "internalType": "address",
          "name": "owner",
          "type": "address"
        }
      ],
      "name": "balanceOf",
      "outputs": [
        {
          "internalType": "uint256",
          "name": "",
          "type": "uint256"
        }
      ],
      "stateMutability": "view",
      "type": "function"
    },
    {
      "inputs": [
        {
          "internalType": "uint256",
          "name": "tokenId",
          "type": "uint256"
        }
      ],
      "name": "getApproved",
      "outputs": [
        {
          "internalType": "address",
          "name": "",
          "type": "address"
        }
      ],
      "stateMutability": "view",
      "type": "function"
    },
    {
      "inputs": [
        {
          "internalType": "address",
          "name": "owner",
          "type": "address"
        },
        {
          "internalType": "address",
          "name": "operator",
          "type": "address"
        }
      ],
      "name": "isApprovedForAll",
      "outputs": [
        {
          "internalType": "bool",
          "name": "",
          "type": "bool"
        }
      ],
      "stateMutability": "view",
      "type": "function"
    },
    {
      "inputs": [
        {
          "internalType": "address",
          "name": "minter",
          "type": "address"
        }
      ],
      "name": "isApprovedMinter",
      "outputs": [
        {
          "internalType": "bool",
          "name": "",
          "type": "bool"
        }
      ],
      "stateMutability": "view",
      "type": "function"
    },
    {
      "inputs": [
        {
          "internalType": "address",
          "name": "to",
          "type": "address"
        }
      ],
      "name": "mint",
      "outputs": [],
      "stateMutability": "nonpayable",
      "type": "function"
    },
    {
      "inputs": [],
      "name": "name",
      "outputs": [
        {
          "internalType": "string",
          "name": "",
          "type": "string"
        }
      ],
      "stateMutability": "view",
      "type": "function"
    },
    {
      "inputs": [],
      "name": "owner",
      "outputs": [
        {
          "internalType": "address",
          "name": "",
          "type": "address"
        }
      ],
      "stateMutability": "view",
      "type": "function"
    },
    {
      "inputs": [
        {
          "internalType": "uint256",
          "name": "tokenId",
          "type": "uint256"
        }
      ],
      "name": "ownerOf",
      "outputs": [
        {
          "internalType": "address",
          "name": "",
          "type": "address"
        }
      ],
      "stateMutability": "view",
      "type": "function"
    },
    {
      "inputs": [],
      "name": "renounceOwnership",
      "outputs": [],
      "stateMutability": "nonpayable",
      "type": "function"
    },
    {
      "inputs": [
        {
          "internalType": "uint256",
          "name": "",
          "type": "uint256"
        },
        {
          "internalType": "uint256",
          "name": "_salePrice",
          "type": "uint256"
        }
      ],
      "name": "royaltyInfo",
      "outputs": [
        {
          "internalType": "address",
          "name": "receiver",
          "type": "address"
        },
        {
          "internalType": "uint256",
          "name": "royaltyAmount",
          "type": "uint256"
        }
      ],
      "stateMutability": "view",
      "type": "function"
    },
    {
      "inputs": [
        {
          "internalType": "address",
          "name": "from",
          "type": "address"
        },
        {
          "internalType": "address",
          "name": "to",
          "type": "address"
        },
        {
          "internalType": "uint256",
          "name": "tokenId",
          "type": "uint256"
        }
      ],
      "name": "safeTransferFrom",
      "outputs": [],
      "stateMutability": "nonpayable",
      "type": "function"
    },
    {
      "inputs": [
        {
          "internalType": "address",
          "name": "from",
          "type": "address"
        },
        {
          "internalType": "address",
          "name": "to",
          "type": "address"
        },
        {
          "internalType": "uint256",
          "name": "tokenId",
          "type": "uint256"
        },
        {
          "internalType": "bytes",
          "name": "_data",
          "type": "bytes"
        }
      ],
      "name": "safeTransferFrom",
      "outputs": [],
      "stateMutability": "nonpayable",
      "type": "function"
    },
    {
      "inputs": [
        {
          "internalType": "address",
          "name": "operator",
          "type": "address"
        },
        {
          "internalType": "bool",
          "name": "approved",
          "type": "bool"
        }
      ],
      "name": "setApprovalForAll",
      "outputs": [],
      "stateMutability": "nonpayable",
      "type": "function"
    },
    {
      "inputs": [
        {
          "internalType": "address[]",
          "name": "_approvedMinters",
          "type": "address[]"
        }
      ],
      "name": "setApprovedMinters",
      "outputs": [],
      "stateMutability": "nonpayable",
      "type": "function"
    },
    {
      "inputs": [
        {
          "internalType": "bytes4",
          "name": "interfaceId",
          "type": "bytes4"
        }
      ],
      "name": "supportsInterface",
      "outputs": [
        {
          "internalType": "bool",
          "name": "",
          "type": "bool"
        }
      ],
      "stateMutability": "view",
      "type": "function"
    },
    {
      "inputs": [],
      "name": "symbol",
      "outputs": [
        {
          "internalType": "string",
          "name": "",
          "type": "string"
        }
      ],
      "stateMutability": "view",
      "type": "function"
    },
    {
      "inputs": [
        {
          "internalType": "uint256",
          "name": "tokenId",
          "type": "uint256"
        }
      ],
      "name": "tokenURI",
      "outputs": [
        {
          "internalType": "string",
          "name": "",
          "type": "string"
        }
      ],
      "stateMutability": "view",
      "type": "function"
    },
    {
      "inputs": [
        {
          "internalType": "address",
          "name": "from",
          "type": "address"
        },
        {
          "internalType": "address",
          "name": "to",
          "type": "address"
        },
        {
          "internalType": "uint256",
          "name": "tokenId",
          "type": "uint256"
        }
      ],
      "name": "transferFrom",
      "outputs": [],
      "stateMutability": "nonpayable",
      "type": "function"
    },
    {
      "inputs": [
        {
          "internalType": "address",
          "name": "newOwner",
          "type": "address"
        }
      ],
      "name": "transferOwnership",
      "outputs": [],
      "stateMutability": "nonpayable",
      "type": "function"
    }
  ],
  "transactionHash": "0x7bb8f480f99b3e4f87f6479d97bf2391e2355f81252060c3d820912501b04320",
  "args": [
    "Algo-Light",
    "ALIGHT",
    "https://example.com/metadata-base/",
    10
  ],
  "solcInputHash": "7d1b8dbbfa7add6eb4531d430cf71b96",
  "bytecode": "0x60806040523480156200001157600080fd5b50604051620020813803806200208183398101604081905262000034916200039d565b8351849084906200004d9060009060208501906200019a565b508051620000639060019060208401906200019a565b505050620000806200007a6200010b60201b60201c565b6200010f565b8151620000959060079060208501906200019a565b508061ffff166001600160401b03811115620000b557620000b56200055b565b604051908082528060200260200182016040528015620000df578160200160208202803683370190505b508051620000f69160089160209091019062000229565b506200010162000161565b5050505062000571565b3390565b600680546001600160a01b038381166001600160a01b0319831681179093556040519116919082907f8be0079c531659141344cd1fd0a4f28419497f9722a3daafe3b4186f6b6457e090600090a35050565b33425a3a60076040516020016200017d95949392919062000449565b60408051601f198184030181529190528051602090910120600a55565b828054620001a8906200051e565b90600052602060002090601f016020900481019282620001cc576000855562000217565b82601f10620001e757805160ff191683800117855562000217565b8280016001018555821562000217579182015b8281111562000217578251825591602001919060010190620001fa565b5062000225929150620002cf565b5090565b82805482825590600052602060002090600f01601090048101928215620002175791602002820160005b838211156200029557835183826101000a81548161ffff021916908361ffff160217905550926020019260020160208160010104928301926001030262000253565b8015620002c55782816101000a81549061ffff021916905560020160208160010104928301926001030262000295565b5050620002259291505b5b80821115620002255760008155600101620002d0565b600082601f830112620002f857600080fd5b81516001600160401b03808211156200031557620003156200055b565b604051601f8301601f19908116603f011681019082821181831017156200034057620003406200055b565b816040528381526020925086838588010111156200035d57600080fd5b600091505b8382101562000381578582018301518183018401529082019062000362565b83821115620003935760008385830101525b9695505050505050565b60008060008060808587031215620003b457600080fd5b84516001600160401b0380821115620003cc57600080fd5b620003da88838901620002e6565b95506020870151915080821115620003f157600080fd5b620003ff88838901620002e6565b945060408701519150808211156200041657600080fd5b506200042587828801620002e6565b925050606085015161ffff811681146200043e57600080fd5b939692955090935050565b60018060601b03198660601b168152846014820152836034820152826054820152600060746000845481600182811c9150808316806200048a57607f831692505b6020808410821415620004ab57634e487b7160e01b86526022600452602486fd5b818015620004c25760018114620004d8576200050b565b60ff1986168a890152848a01880196506200050b565b60008b81526020902060005b86811015620005015781548c82018b0152908501908301620004e4565b505087858b010196505b50949d9c50505050505050505050505050565b600181811c908216806200053357607f821691505b602082108114156200055557634e487b7160e01b600052602260045260246000fd5b50919050565b634e487b7160e01b600052604160045260246000fd5b611b0080620005816000396000f3fe608060405234801561001057600080fd5b506004361061012c5760003560e01c80636a627842116100ad578063a22cb46511610071578063a22cb4651461028b578063b88d4fde1461029e578063c87b56dd146102b1578063e985e9c5146102c4578063f2fde38b146102d757600080fd5b80636a6278421461023f57806370a0823114610252578063715018a6146102735780638da5cb5b1461027b57806395d89b411461028357600080fd5b806323b872dd116100f457806323b872dd146101c15780632a55205a146101d45780633a3d146f1461020657806342842e0e146102195780636352211e1461022c57600080fd5b806301ffc9a71461013157806306fdde0314610159578063081812fc1461016e578063095ea7b3146101995780631667a686146101ae575b600080fd5b61014461013f366004611644565b6102ea565b60405190151581526020015b60405180910390f35b610161610315565b6040516101509190611832565b61018161017c36600461167e565b6103a7565b6040516001600160a01b039091168152602001610150565b6101ac6101a7366004611566565b610434565b005b6101ac6101bc366004611590565b610545565b6101ac6101cf36600461142e565b61058b565b6101e76101e2366004611697565b6105bc565b604080516001600160a01b039093168352602083019190915201610150565b6101446102143660046113d9565b6105ea565b6101ac61022736600461142e565b610678565b61018161023a36600461167e565b610693565b6101ac61024d3660046113d9565b61070a565b6102656102603660046113d9565b6108ec565b604051908152602001610150565b6101ac610973565b6101816109ae565b6101616109bd565b6101ac61029936600461152a565b6109cc565b6101ac6102ac36600461146a565b610a8d565b6101616102bf36600461167e565b610ac5565b6101446102d23660046113fb565b610b39565b6101ac6102e53660046113d9565b610b67565b600063152a902d60e11b6001600160e01b03198316148061030f575061030f82610c04565b92915050565b606060008054610324906119dc565b80601f0160208091040260200160405190810160405280929190818152602001828054610350906119dc565b801561039d5780601f106103725761010080835404028352916020019161039d565b820191906000526020600020905b81548152906001019060200180831161038057829003601f168201915b5050505050905090565b60006103b282610c54565b6104185760405162461bcd60e51b815260206004820152602c60248201527f4552433732313a20617070726f76656420717565727920666f72206e6f6e657860448201526b34b9ba32b73a103a37b5b2b760a11b60648201526084015b60405180910390fd5b506000908152600460205260409020546001600160a01b031690565b600061043f82610693565b9050806001600160a01b0316836001600160a01b031614156104ad5760405162461bcd60e51b815260206004820152602160248201527f4552433732313a20617070726f76616c20746f2063757272656e74206f776e656044820152603960f91b606482015260840161040f565b336001600160a01b03821614806104c957506104c98133610b39565b6105365760405162461bcd60e51b815260206004820152603860248201527f4552433732313a20617070726f76652063616c6c6572206973206e6f74206f776044820152771b995c881b9bdc88185c1c1c9bdd995908199bdc88185b1b60421b606482015260840161040f565b6105408383610c71565b505050565b3361054e6109ae565b6001600160a01b0316146105745760405162461bcd60e51b815260040161040f90611897565b8051610587906009906020840190611343565b5050565b6105953382610cdf565b6105b15760405162461bcd60e51b815260040161040f906118cc565b610540838383610da9565b6000806105c76109ae565b6127106105d585609661197a565b6105df9190611966565b915091509250929050565b60006105f46109ae565b6001600160a01b0316826001600160a01b0316141561061557506001919050565b60005b60095481101561066f576009818154811061063557610635611a88565b6000918252602090912001546001600160a01b038481169116141561065d5750600192915050565b8061066781611a17565b915050610618565b50600092915050565b61054083838360405180602001604052806000815250610a8d565b6000818152600260205260408120546001600160a01b03168061030f5760405162461bcd60e51b815260206004820152602960248201527f4552433732313a206f776e657220717565727920666f72206e6f6e657869737460448201526832b73a103a37b5b2b760b91b606482015260840161040f565b610713336105ea565b156108b2576008546107525760405162461bcd60e51b815260206004820152600860248201526714dbdb19081bdd5d60c21b604482015260640161040f565b61075a610f49565b600854600a5460009161076c91611a32565b905060006008828154811061078357610783611a88565b60009182526020909120601082040154600f9091166002026101000a900461ffff169050806107af5750805b6008546000906107c190600190611999565b9050600060088261ffff16815481106107dc576107dc611a88565b60009182526020909120601082040154600f9091166002026101000a900461ffff169050806108085750805b806008858154811061081c5761081c611a88565b90600052602060002090601091828204019190066002026101000a81548161ffff021916908361ffff160217905550600880548061085c5761085c611a72565b600082815260209020601060001990920191820401805461ffff6002600f8516026101000a021916905590556108996108936109ae565b84610f80565b6108ab6108a46109ae565b8685610da9565b5050505050565b60405162461bcd60e51b815260206004820152600c60248201526b139bdd08185c1c1c9bdd995960a21b604482015260640161040f565b50565b60006001600160a01b0382166109575760405162461bcd60e51b815260206004820152602a60248201527f4552433732313a2062616c616e636520717565727920666f7220746865207a65604482015269726f206164647265737360b01b606482015260840161040f565b506001600160a01b031660009081526003602052604090205490565b3361097c6109ae565b6001600160a01b0316146109a25760405162461bcd60e51b815260040161040f90611897565b6109ac60006110b3565b565b6006546001600160a01b031690565b606060018054610324906119dc565b6001600160a01b038216331415610a215760405162461bcd60e51b815260206004820152601960248201527822a9219b99189d1030b8383937bb32903a379031b0b63632b960391b604482015260640161040f565b3360008181526005602090815260408083206001600160a01b03871680855290835292819020805460ff191686151590811790915590519081529192917f17307eab39ab6107e8899845ad3d59bd9653f200f220920489ca2b5937696c31910160405180910390a35050565b610a973383610cdf565b610ab35760405162461bcd60e51b815260040161040f906118cc565b610abf84848484611105565b50505050565b6060610ad082610c54565b610b075760405162461bcd60e51b81526020600482015260086024820152672727902a27a5a2a760c11b604482015260640161040f565b6007610b1283611138565b604051602001610b239291906117c0565b6040516020818303038152906040529050919050565b6001600160a01b03918216600090815260056020908152604080832093909416825291909152205460ff1690565b33610b706109ae565b6001600160a01b031614610b965760405162461bcd60e51b815260040161040f90611897565b6001600160a01b038116610bfb5760405162461bcd60e51b815260206004820152602660248201527f4f776e61626c653a206e6577206f776e657220697320746865207a65726f206160448201526564647265737360d01b606482015260840161040f565b6108e9816110b3565b60006001600160e01b031982166380ac58cd60e01b1480610c3557506001600160e01b03198216635b5e139f60e01b145b8061030f57506301ffc9a760e01b6001600160e01b031983161461030f565b6000908152600260205260409020546001600160a01b0316151590565b600081815260046020526040902080546001600160a01b0319166001600160a01b0384169081179091558190610ca682610693565b6001600160a01b03167f8c5be1e5ebec7d5bd14f71427d1e84f3dd0314c0f7b2291e5b200ac8c7c3b92560405160405180910390a45050565b6000610cea82610c54565b610d4b5760405162461bcd60e51b815260206004820152602c60248201527f4552433732313a206f70657261746f7220717565727920666f72206e6f6e657860448201526b34b9ba32b73a103a37b5b2b760a11b606482015260840161040f565b6000610d5683610693565b9050806001600160a01b0316846001600160a01b03161480610d915750836001600160a01b0316610d86846103a7565b6001600160a01b0316145b80610da15750610da18185610b39565b949350505050565b826001600160a01b0316610dbc82610693565b6001600160a01b031614610e245760405162461bcd60e51b815260206004820152602960248201527f4552433732313a207472616e73666572206f6620746f6b656e2074686174206960448201526839903737ba1037bbb760b91b606482015260840161040f565b6001600160a01b038216610e865760405162461bcd60e51b8152602060048201526024808201527f4552433732313a207472616e7366657220746f20746865207a65726f206164646044820152637265737360e01b606482015260840161040f565b610e91600082610c71565b6001600160a01b0383166000908152600360205260408120805460019290610eba908490611999565b90915550506001600160a01b0382166000908152600360205260408120805460019290610ee890849061194e565b909155505060008181526002602052604080822080546001600160a01b0319166001600160a01b0386811691821790925591518493918716917fddf252ad1be2c89b69c2b068fc378daa952ba7f163c4a11628f55a4df523b3ef91a4505050565b33425a3a6007604051602001610f6395949392919061177f565b60408051601f198184030181529190528051602090910120600a55565b6001600160a01b038216610fd65760405162461bcd60e51b815260206004820181905260248201527f4552433732313a206d696e7420746f20746865207a65726f2061646472657373604482015260640161040f565b610fdf81610c54565b1561102c5760405162461bcd60e51b815260206004820152601c60248201527f4552433732313a20746f6b656e20616c7265616479206d696e74656400000000604482015260640161040f565b6001600160a01b038216600090815260036020526040812080546001929061105590849061194e565b909155505060008181526002602052604080822080546001600160a01b0319166001600160a01b03861690811790915590518392907fddf252ad1be2c89b69c2b068fc378daa952ba7f163c4a11628f55a4df523b3ef908290a45050565b600680546001600160a01b038381166001600160a01b0319831681179093556040519116919082907f8be0079c531659141344cd1fd0a4f28419497f9722a3daafe3b4186f6b6457e090600090a35050565b611110848484610da9565b61111c84848484611236565b610abf5760405162461bcd60e51b815260040161040f90611845565b60608161115c5750506040805180820190915260018152600360fc1b602082015290565b8160005b8115611186578061117081611a17565b915061117f9050600a83611966565b9150611160565b60008167ffffffffffffffff8111156111a1576111a1611a9e565b6040519080825280601f01601f1916602001820160405280156111cb576020820181803683370190505b5090505b8415610da1576111e0600183611999565b91506111ed600a86611a32565b6111f890603061194e565b60f81b81838151811061120d5761120d611a88565b60200101906001600160f81b031916908160001a90535061122f600a86611966565b94506111cf565b60006001600160a01b0384163b1561133857604051630a85bd0160e11b81526001600160a01b0385169063150b7a029061127a9033908990889088906004016117f5565b602060405180830381600087803b15801561129457600080fd5b505af19250505080156112c4575060408051601f3d908101601f191682019092526112c191810190611661565b60015b61131e573d8080156112f2576040519150601f19603f3d011682016040523d82523d6000602084013e6112f7565b606091505b5080516113165760405162461bcd60e51b815260040161040f90611845565b805181602001fd5b6001600160e01b031916630a85bd0160e11b149050610da1565b506001949350505050565b828054828255906000526020600020908101928215611398579160200282015b8281111561139857825182546001600160a01b0319166001600160a01b03909116178255602090920191600190910190611363565b506113a49291506113a8565b5090565b5b808211156113a457600081556001016113a9565b80356001600160a01b03811681146113d457600080fd5b919050565b6000602082840312156113eb57600080fd5b6113f4826113bd565b9392505050565b6000806040838503121561140e57600080fd5b611417836113bd565b9150611425602084016113bd565b90509250929050565b60008060006060848603121561144357600080fd5b61144c846113bd565b925061145a602085016113bd565b9150604084013590509250925092565b6000806000806080858703121561148057600080fd5b611489856113bd565b935060206114988187016113bd565b935060408601359250606086013567ffffffffffffffff808211156114bc57600080fd5b818801915088601f8301126114d057600080fd5b8135818111156114e2576114e2611a9e565b6114f4601f8201601f1916850161191d565b9150808252898482850101111561150a57600080fd5b808484018584013760008482840101525080935050505092959194509250565b6000806040838503121561153d57600080fd5b611546836113bd565b91506020830135801515811461155b57600080fd5b809150509250929050565b6000806040838503121561157957600080fd5b611582836113bd565b946020939093013593505050565b600060208083850312156115a357600080fd5b823567ffffffffffffffff808211156115bb57600080fd5b818501915085601f8301126115cf57600080fd5b8135818111156115e1576115e1611a9e565b8060051b91506115f284830161191d565b8181528481019084860184860187018a101561160d57600080fd5b600095505b8386101561163757611623816113bd565b835260019590950194918601918601611612565b5098975050505050505050565b60006020828403121561165657600080fd5b81356113f481611ab4565b60006020828403121561167357600080fd5b81516113f481611ab4565b60006020828403121561169057600080fd5b5035919050565b600080604083850312156116aa57600080fd5b50508035926020909101359150565b600081518084526116d18160208601602086016119b0565b601f01601f19169290920160200192915050565b8054600090600181811c90808316806116ff57607f831692505b602080841082141561172157634e487b7160e01b600052602260045260246000fd5b818015611735576001811461174657611773565b60ff19861689528489019650611773565b60008881526020902060005b8681101561176b5781548b820152908501908301611752565b505084890196505b50505050505092915050565b6bffffffffffffffffffffffff198660601b16815284601482015283603482015282605482015260006117b560748301846116e5565b979650505050505050565b60006117cc82856116e5565b83516117dc8183602088016119b0565b64173539b7b760d91b9101908152600501949350505050565b6001600160a01b0385811682528416602082015260408101839052608060608201819052600090611828908301846116b9565b9695505050505050565b6020815260006113f460208301846116b9565b60208082526032908201527f4552433732313a207472616e7366657220746f206e6f6e20455243373231526560408201527131b2b4bb32b91034b6b83632b6b2b73a32b960711b606082015260800190565b6020808252818101527f4f776e61626c653a2063616c6c6572206973206e6f7420746865206f776e6572604082015260600190565b60208082526031908201527f4552433732313a207472616e736665722063616c6c6572206973206e6f74206f6040820152701ddb995c881b9bdc88185c1c1c9bdd9959607a1b606082015260800190565b604051601f8201601f1916810167ffffffffffffffff8111828210171561194657611946611a9e565b604052919050565b6000821982111561196157611961611a46565b500190565b60008261197557611975611a5c565b500490565b600081600019048311821515161561199457611994611a46565b500290565b6000828210156119ab576119ab611a46565b500390565b60005b838110156119cb5781810151838201526020016119b3565b83811115610abf5750506000910152565b600181811c908216806119f057607f821691505b60208210811415611a1157634e487b7160e01b600052602260045260246000fd5b50919050565b6000600019821415611a2b57611a2b611a46565b5060010190565b600082611a4157611a41611a5c565b500690565b634e487b7160e01b600052601160045260246000fd5b634e487b7160e01b600052601260045260246000fd5b634e487b7160e01b600052603160045260246000fd5b634e487b7160e01b600052603260045260246000fd5b634e487b7160e01b600052604160045260246000fd5b6001600160e01b0319811681146108e957600080fdfea264697066735822122080ff0d604b88582b0f3a78eec37daaf0c30a680d89ec4f21c240e95cfbfa738a64736f6c63430008060033",
  "devdoc": {
    "author": "Iain Nash @isiain",
    "custom:warning": "UNAUDITED: Use at own risk",
    "details": "Contract for Algo Light Project by @jawn",
    "kind": "dev",
    "methods": {
      "approve(address,uint256)": {
        "details": "See {IERC721-approve}."
      },
      "balanceOf(address)": {
        "details": "See {IERC721-balanceOf}."
      },
      "constructor": {
        "details": "Sets up the serial contract with a name, symbol, and an initial allowed creator.",
        "params": {
          "_maxAvailableId": "Max number that can be minted beyond 0",
          "_metadataBase": "Base URL of metadata",
          "name": "Name of NFT contract",
          "symbol": "Symbol of NFT contract"
        }
      },
      "getApproved(uint256)": {
        "details": "See {IERC721-getApproved}."
      },
      "isApprovedForAll(address,address)": {
        "details": "See {IERC721-isApprovedForAll}."
      },
      "isApprovedMinter(address)": {
        "details": "Returns if given address is an approved minter or owner",
        "params": {
          "minter": "address of potential minter to test"
        }
      },
      "mint(address)": {
        "details": "Authenticated mint function that mints a random available NFT",
        "params": {
          "to": "Address to mint NFT to"
        }
      },
      "name()": {
        "details": "See {IERC721Metadata-name}."
      },
      "owner()": {
        "details": "Returns the address of the current owner."
      },
      "ownerOf(uint256)": {
        "details": "See {IERC721-ownerOf}."
      },
      "renounceOwnership()": {
        "details": "Leaves the contract without owner. It will not be possible to call `onlyOwner` functions anymore. Can only be called by the current owner. NOTE: Renouncing ownership will leave the contract without an owner, thereby removing any functionality that is only available to the owner."
      },
      "royaltyInfo(uint256,uint256)": {
        "details": "Returns 15% royalty to DAO"
      },
      "safeTransferFrom(address,address,uint256)": {
        "details": "See {IERC721-safeTransferFrom}."
      },
      "safeTransferFrom(address,address,uint256,bytes)": {
        "details": "See {IERC721-safeTransferFrom}."
      },
      "setApprovalForAll(address,bool)": {
        "details": "See {IERC721-setApprovalForAll}."
      },
      "setApprovedMinters(address[])": {
        "details": "Admin owner-only function to update the list of approved minters",
        "params": {
          "_approvedMinters": "list of addresses that are approved minters"
        }
      },
      "symbol()": {
        "details": "See {IERC721Metadata-symbol}."
      },
      "tokenURI(uint256)": {
        "details": "Returns tokenURI for given token that exists",
        "params": {
          "tokenId": "id of token to retrieve metadata for"
        }
      },
      "transferFrom(address,address,uint256)": {
        "details": "See {IERC721-transferFrom}."
      },
      "transferOwnership(address)": {
        "details": "Transfers ownership of the contract to a new account (`newOwner`). Can only be called by the current owner."
      }
    },
    "version": 1
  },
  "userdoc": {
    "kind": "user",
    "methods": {},
    "version": 1
  },
  "storageLayout": {
    "storage": [
      {
        "astId": 843,
        "contract": "contracts/AlgoLight.sol:AlgoLight",
        "label": "_name",
        "offset": 0,
        "slot": "0",
        "type": "t_string_storage"
      },
      {
        "astId": 845,
        "contract": "contracts/AlgoLight.sol:AlgoLight",
        "label": "_symbol",
        "offset": 0,
        "slot": "1",
        "type": "t_string_storage"
      },
      {
        "astId": 849,
        "contract": "contracts/AlgoLight.sol:AlgoLight",
        "label": "_owners",
        "offset": 0,
        "slot": "2",
        "type": "t_mapping(t_uint256,t_address)"
      },
      {
        "astId": 853,
        "contract": "contracts/AlgoLight.sol:AlgoLight",
        "label": "_balances",
        "offset": 0,
        "slot": "3",
        "type": "t_mapping(t_address,t_uint256)"
      },
      {
        "astId": 857,
        "contract": "contracts/AlgoLight.sol:AlgoLight",
        "label": "_tokenApprovals",
        "offset": 0,
        "slot": "4",
        "type": "t_mapping(t_uint256,t_address)"
      },
      {
        "astId": 863,
        "contract": "contracts/AlgoLight.sol:AlgoLight",
        "label": "_operatorApprovals",
        "offset": 0,
        "slot": "5",
        "type": "t_mapping(t_address,t_mapping(t_address,t_bool))"
      },
      {
        "astId": 7,
        "contract": "contracts/AlgoLight.sol:AlgoLight",
        "label": "_owner",
        "offset": 0,
        "slot": "6",
        "type": "t_address"
      },
      {
        "astId": 2369,
        "contract": "contracts/AlgoLight.sol:AlgoLight",
        "label": "metadataBase",
        "offset": 0,
        "slot": "7",
        "type": "t_string_storage"
      },
      {
        "astId": 2373,
        "contract": "contracts/AlgoLight.sol:AlgoLight",
        "label": "availableIds",
        "offset": 0,
        "slot": "8",
        "type": "t_array(t_uint16)dyn_storage"
      },
      {
        "astId": 2377,
        "contract": "contracts/AlgoLight.sol:AlgoLight",
        "label": "approvedMinters",
        "offset": 0,
        "slot": "9",
        "type": "t_array(t_address)dyn_storage"
      },
      {
        "astId": 2380,
        "contract": "contracts/AlgoLight.sol:AlgoLight",
        "label": "entropyBase",
        "offset": 0,
        "slot": "10",
        "type": "t_bytes32"
      }
    ],
    "types": {
      "t_address": {
        "encoding": "inplace",
        "label": "address",
        "numberOfBytes": "20"
      },
      "t_array(t_address)dyn_storage": {
        "base": "t_address",
        "encoding": "dynamic_array",
        "label": "address[]",
        "numberOfBytes": "32"
      },
      "t_array(t_uint16)dyn_storage": {
        "base": "t_uint16",
        "encoding": "dynamic_array",
        "label": "uint16[]",
        "numberOfBytes": "32"
      },
      "t_bool": {
        "encoding": "inplace",
        "label": "bool",
        "numberOfBytes": "1"
      },
      "t_bytes32": {
        "encoding": "inplace",
        "label": "bytes32",
        "numberOfBytes": "32"
      },
      "t_mapping(t_address,t_bool)": {
        "encoding": "mapping",
        "key": "t_address",
        "label": "mapping(address => bool)",
        "numberOfBytes": "32",
        "value": "t_bool"
      },
      "t_mapping(t_address,t_mapping(t_address,t_bool))": {
        "encoding": "mapping",
        "key": "t_address",
        "label": "mapping(address => mapping(address => bool))",
        "numberOfBytes": "32",
        "value": "t_mapping(t_address,t_bool)"
      },
      "t_mapping(t_address,t_uint256)": {
        "encoding": "mapping",
        "key": "t_address",
        "label": "mapping(address => uint256)",
        "numberOfBytes": "32",
        "value": "t_uint256"
      },
      "t_mapping(t_uint256,t_address)": {
        "encoding": "mapping",
        "key": "t_uint256",
        "label": "mapping(uint256 => address)",
        "numberOfBytes": "32",
        "value": "t_address"
      },
      "t_string_storage": {
        "encoding": "bytes",
        "label": "string",
        "numberOfBytes": "32"
      },
      "t_uint16": {
        "encoding": "inplace",
        "label": "uint16",
        "numberOfBytes": "2"
      },
      "t_uint256": {
        "encoding": "inplace",
        "label": "uint256",
        "numberOfBytes": "32"
      }
    }
  }
}