{
  "address": "0xA3901c48989565171795Db1E0de5B14CD9571e4E",
  "abi": [
    {
      "inputs": [
        {
          "internalType": "contract IMintable",
          "name": "_mintable",
          "type": "address"
        },
        {
          "internalType": "contract IERC20",
          "name": "_privateSaleToken",
          "type": "address"
        }
      ],
      "stateMutability": "nonpayable",
      "type": "constructor"
    },
    {
      "inputs": [],
      "name": "purchase",
      "outputs": [],
      "stateMutability": "payable",
      "type": "function"
    },
    {
      "inputs": [
        {
          "internalType": "uint256",
          "name": "editions",
          "type": "uint256"
        }
      ],
      "name": "purchaseWithTokens",
      "outputs": [],
      "stateMutability": "nonpayable",
      "type": "function"
    },
    {
      "inputs": [],
      "name": "saleInfo",
      "outputs": [
        {
          "internalType": "uint256",
          "name": "",
          "type": "uint256"
        },
        {
          "internalType": "uint256",
          "name": "",
          "type": "uint256"
        },
        {
          "internalType": "uint256",
          "name": "",
          "type": "uint256"
        },
        {
          "internalType": "uint256",
          "name": "",
          "type": "uint256"
        }
      ],
      "stateMutability": "view",
      "type": "function"
    },
    {
      "inputs": [
        {
          "internalType": "uint256",
          "name": "newPublicNumber",
          "type": "uint256"
        },
        {
          "internalType": "uint256",
          "name": "newPrivateNumber",
          "type": "uint256"
        }
      ],
      "name": "setSaleNumbers",
      "outputs": [],
      "stateMutability": "nonpayable",
      "type": "function"
    },
    {
      "inputs": [],
      "name": "withdrawEth",
      "outputs": [],
      "stateMutability": "nonpayable",
      "type": "function"
    },
    {
      "inputs": [],
      "name": "withdrawMasterTokens",
      "outputs": [],
      "stateMutability": "nonpayable",
      "type": "function"
    }
  ],
  "transactionHash": "0x70758f4ddc00d63186fd28a166ff2d41205b9276edd0dd353393f0bb1cbf2876",
  "args": [
    "0x5cA54811D39719bB98Ce5507075E4813e6AEac72",
    "0xfd8D7dBECd5c083dDe2b828F96be5d16D1188235"
  ],
  "solcInputHash": "ce2c7a0e6cb6f0d3ea3ddca78f3a017f",
  "bytecode": "0x60c060405234801561001057600080fd5b50604051610c13380380610c1383398101604081905261002f91610052565b60016000556001600160601b0319606092831b8116608052911b1660a0526100a4565b6000806040838503121561006557600080fd5b82516100708161008c565b60208401519092506100818161008c565b809150509250929050565b6001600160a01b03811681146100a157600080fd5b50565b60805160601c60a05160601c610b136101006000396000818161049e01528181610738015261080f0152600081816101bf015281816102470152818161030c015281816105c40152818161067501526107670152610b136000f3fe6080604052600436106100555760003560e01c806364edfbf01461005a57806382b07206146100645780638e3695b81461008a578063a0ef91df146100c7578063d587c0c3146100dc578063e39f3e4a146100fc575b600080fd5b610062610111565b005b34801561007057600080fd5b5061006261007f36600461099e565b600191909155600355565b34801561009657600080fd5b5060015460025460035460045460408051948552602085019390935291830152606082015260800160405180910390f35b3480156100d357600080fd5b50610062610245565b3480156100e857600080fd5b506100626100f736600461096c565b61043d565b34801561010857600080fd5b50610062610648565b6002600054141561013d5760405162461bcd60e51b815260040161013490610a42565b60405180910390fd5b600260008190556001549054106101665760405162461bcd60e51b8152600401610134906109fd565b67016345785d8a00003410156101a85760405162461bcd60e51b8152602060048201526007602482015266546f6f206c6f7760c81b6044820152606401610134565b6040516335313c2160e11b81526001600160a01b037f00000000000000000000000000000000000000000000000000000000000000001690636a627842906101f49033906004016109c0565b600060405180830381600087803b15801561020e57600080fd5b505af1158015610222573d6000803e3d6000fd5b505050506001600260008282546102399190610a79565b90915550506001600055565b7f00000000000000000000000000000000000000000000000000000000000000006001600160a01b0316638da5cb5b6040518163ffffffff1660e01b8152600401602060405180830381600087803b1580156102a057600080fd5b505af11580156102b4573d6000803e3d6000fd5b505050506040513d601f19601f820116820180604052508101906102d8919061091a565b6001600160a01b0316336001600160a01b0316146103085760405162461bcd60e51b815260040161013490610a1e565b60007f00000000000000000000000000000000000000000000000000000000000000006001600160a01b0316638da5cb5b6040518163ffffffff1660e01b8152600401602060405180830381600087803b15801561036557600080fd5b505af1158015610379573d6000803e3d6000fd5b505050506040513d601f19601f8201168201806040525081019061039d919061091a565b6001600160a01b031647620186a090604051600060405180830381858888f193505050503d80600081146103ed576040519150601f19603f3d011682016040523d82523d6000602084013e6103f2565b606091505b505090508061043a5760405162461bcd60e51b81526020600482015260146024820152732330b4b632b2103a379039b2b7321022ba3432b960611b6044820152606401610134565b50565b600260005414156104605760405162461bcd60e51b815260040161013490610a42565b6002600055600354600454610476908390610a79565b11156104945760405162461bcd60e51b8152600401610134906109fd565b6001600160a01b037f0000000000000000000000000000000000000000000000000000000000000000166323b872dd33306104d785670de0b6b3a7640000610a91565b6040516001600160e01b031960e086901b1681526001600160a01b0393841660048201529290911660248301526044820152606401602060405180830381600087803b15801561052657600080fd5b505af1925050508015610556575060408051601f3d908101601f191682019092526105539181019061094a565b60015b6105725760405162461bcd60e51b8152600401610134906109d4565b8061058f5760405162461bcd60e51b8152600401610134906109d4565b811561063f576001600460008282546105a89190610a79565b90915550506040516335313c2160e11b81526001600160a01b037f00000000000000000000000000000000000000000000000000000000000000001690636a627842906105f99033906004016109c0565b600060405180830381600087803b15801561061357600080fd5b505af1158015610627573d6000803e3d6000fd5b505050506001826106389190610ab0565b915061058f565b50506001600055565b6002600054141561066b5760405162461bcd60e51b815260040161013490610a42565b60026000819055507f00000000000000000000000000000000000000000000000000000000000000006001600160a01b0316638da5cb5b6040518163ffffffff1660e01b8152600401602060405180830381600087803b1580156106ce57600080fd5b505af11580156106e2573d6000803e3d6000fd5b505050506040513d601f19601f82011682018060405250810190610706919061091a565b6001600160a01b0316336001600160a01b0316146107365760405162461bcd60e51b815260040161013490610a1e565b7f00000000000000000000000000000000000000000000000000000000000000006001600160a01b031663a9059cbb7f00000000000000000000000000000000000000000000000000000000000000006001600160a01b0316638da5cb5b6040518163ffffffff1660e01b8152600401602060405180830381600087803b1580156107c057600080fd5b505af11580156107d4573d6000803e3d6000fd5b505050506040513d601f19601f820116820180604052508101906107f8919061091a565b6040516370a0823160e01b81526001600160a01b037f000000000000000000000000000000000000000000000000000000000000000016906370a08231906108449030906004016109c0565b60206040518083038186803b15801561085c57600080fd5b505afa158015610870573d6000803e3d6000fd5b505050506040513d601f19601f820116820180604052508101906108949190610985565b6040516001600160e01b031960e085901b1681526001600160a01b0390921660048301526024820152604401602060405180830381600087803b1580156108da57600080fd5b505af11580156108ee573d6000803e3d6000fd5b505050506040513d601f19601f82011682018060405250810190610912919061094a565b506001600055565b60006020828403121561092c57600080fd5b81516001600160a01b038116811461094357600080fd5b9392505050565b60006020828403121561095c57600080fd5b8151801515811461094357600080fd5b60006020828403121561097e57600080fd5b5035919050565b60006020828403121561099757600080fd5b5051919050565b600080604083850312156109b157600080fd5b50508035926020909101359150565b6001600160a01b0391909116815260200190565b6020808252600f908201526e21b0b73737ba103a3930b739b332b960891b604082015260600190565b6020808252600790820152664e6f2073616c6560c81b604082015260600190565b6020808252600a908201526937b7363c9037bbb732b960b11b604082015260600190565b6020808252601f908201527f5265656e7472616e637947756172643a207265656e7472616e742063616c6c00604082015260600190565b60008219821115610a8c57610a8c610ac7565b500190565b6000816000190483118215151615610aab57610aab610ac7565b500290565b600082821015610ac257610ac2610ac7565b500390565b634e487b7160e01b600052601160045260246000fdfea2646970667358221220ce0b7c541d703bcc9f7926c41a63170a883b22e5dbed5bf164bfbc7e8f28365164736f6c63430008060033",
  "devdoc": {
    "author": "Iain Nash @isiain",
    "custom:warning": "UNAUDITED: Use at own risk",
    "details": "Minting Contract for Algo Lite Project by @jawn",
    "kind": "dev",
    "methods": {
      "constructor": {
        "details": "Creates a new sales contract",
        "params": {
          "_mintable": "Mintable contract",
          "_privateSaleToken": "token for private sales section"
        }
      },
      "purchase()": {
        "details": "Public purchase token, limited by number sold public, requires ETH value"
      },
      "purchaseWithTokens(uint256)": {
        "details": "Purchase with token private sales fn Requires: 1. token amount to transfer,"
      },
      "saleInfo()": {
        "details": "Returns sales info",
        "returns": {
          "_0": "(numberpublic, soldpublic, numberprivate, soldprivate)"
        }
      },
      "setSaleNumbers(uint256,uint256)": {
        "details": "Set number of NFTs that can be purchased",
        "params": {
          "newPrivateNumber": "new number allocated for private sale",
          "newPublicNumber": "new number allowed for public sale"
        }
      },
      "withdrawEth()": {
        "details": "Withdraw ETH from public minting"
      },
      "withdrawMasterTokens()": {
        "details": "Withdraw tokens from mints to be distributed proportionally to holders of the token."
      }
    },
    "version": 1
  },
  "userdoc": {
    "kind": "user",
    "methods": {},
    "version": 1
  },
  "storageLayout": {
    "storage": [
      {
        "astId": 139,
        "contract": "contracts/AlgoLiteSale.sol:AlgoLiteSale",
        "label": "_status",
        "offset": 0,
        "slot": "0",
        "type": "t_uint256"
      },
      {
        "astId": 2720,
        "contract": "contracts/AlgoLiteSale.sol:AlgoLiteSale",
        "label": "numberPublicSale",
        "offset": 0,
        "slot": "1",
        "type": "t_uint256"
      },
      {
        "astId": 2722,
        "contract": "contracts/AlgoLiteSale.sol:AlgoLiteSale",
        "label": "numberSoldPublic",
        "offset": 0,
        "slot": "2",
        "type": "t_uint256"
      },
      {
        "astId": 2724,
        "contract": "contracts/AlgoLiteSale.sol:AlgoLiteSale",
        "label": "numberPrivateSale",
        "offset": 0,
        "slot": "3",
        "type": "t_uint256"
      },
      {
        "astId": 2726,
        "contract": "contracts/AlgoLiteSale.sol:AlgoLiteSale",
        "label": "numberSoldPrivate",
        "offset": 0,
        "slot": "4",
        "type": "t_uint256"
      }
    ],
    "types": {
      "t_uint256": {
        "encoding": "inplace",
        "label": "uint256",
        "numberOfBytes": "32"
      }
    }
  }
}