{
  "address": "0x5c685a3EBC751F36B2123C25F5c464D3b9964AfC",
  "abi": [
    {
      "inputs": [
        {
          "internalType": "string",
          "name": "name",
          "type": "string"
        },
        {
          "internalType": "string",
          "name": "symbol",
          "type": "string"
        },
        {
          "internalType": "string",
          "name": "_metadataBase",
          "type": "string"
        },
        {
          "internalType": "uint16",
          "name": "_maxAvailableId",
          "type": "uint16"
        },
        {
          "internalType": "address",
          "name": "multisigOwner",
          "type": "address"
        }
      ],
      "stateMutability": "nonpayable",
      "type": "constructor"
    },
    {
      "anonymous": false,
      "inputs": [
        {
          "indexed": true,
          "internalType": "address",
          "name": "owner",
          "type": "address"
        },
        {
          "indexed": true,
          "internalType": "address",
          "name": "approved",
          "type": "address"
        },
        {
          "indexed": true,
          "internalType": "uint256",
          "name": "tokenId",
          "type": "uint256"
        }
      ],
      "name": "Approval",
      "type": "event"
    },
    {
      "anonymous": false,
      "inputs": [
        {
          "indexed": true,
          "internalType": "address",
          "name": "owner",
          "type": "address"
        },
        {
          "indexed": true,
          "internalType": "address",
          "name": "operator",
          "type": "address"
        },
        {
          "indexed": false,
          "internalType": "bool",
          "name": "approved",
          "type": "bool"
        }
      ],
      "name": "ApprovalForAll",
      "type": "event"
    },
    {
      "anonymous": false,
      "inputs": [
        {
          "indexed": true,
          "internalType": "address",
          "name": "previousOwner",
          "type": "address"
        },
        {
          "indexed": true,
          "internalType": "address",
          "name": "newOwner",
          "type": "address"
        }
      ],
      "name": "OwnershipTransferred",
      "type": "event"
    },
    {
      "anonymous": false,
      "inputs": [
        {
          "indexed": true,
          "internalType": "address",
          "name": "from",
          "type": "address"
        },
        {
          "indexed": true,
          "internalType": "address",
          "name": "to",
          "type": "address"
        },
        {
          "indexed": true,
          "internalType": "uint256",
          "name": "tokenId",
          "type": "uint256"
        }
      ],
      "name": "Transfer",
      "type": "event"
    },
    {
      "inputs": [
        {
          "internalType": "address",
          "name": "to",
          "type": "address"
        },
        {
          "internalType": "uint256",
          "name": "tokenId",
          "type": "uint256"
        }
      ],
      "name": "approve",
      "outputs": [],
      "stateMutability": "nonpayable",
      "type": "function"
    },
    {
      "inputs": [
        {
          "internalType": "address",
          "name": "owner",
          "type": "address"
        }
      ],
      "name": "balanceOf",
      "outputs": [
        {
          "internalType": "uint256",
          "name": "",
          "type": "uint256"
        }
      ],
      "stateMutability": "view",
      "type": "function"
    },
    {
      "inputs": [
        {
          "internalType": "uint256",
          "name": "tokenId",
          "type": "uint256"
        }
      ],
      "name": "getApproved",
      "outputs": [
        {
          "internalType": "address",
          "name": "",
          "type": "address"
        }
      ],
      "stateMutability": "view",
      "type": "function"
    },
    {
      "inputs": [
        {
          "internalType": "address",
          "name": "owner",
          "type": "address"
        },
        {
          "internalType": "address",
          "name": "operator",
          "type": "address"
        }
      ],
      "name": "isApprovedForAll",
      "outputs": [
        {
          "internalType": "bool",
          "name": "",
          "type": "bool"
        }
      ],
      "stateMutability": "view",
      "type": "function"
    },
    {
      "inputs": [
        {
          "internalType": "address",
          "name": "to",
          "type": "address"
        }
      ],
      "name": "mint",
      "outputs": [],
      "stateMutability": "nonpayable",
      "type": "function"
    },
    {
      "inputs": [],
      "name": "name",
      "outputs": [
        {
          "internalType": "string",
          "name": "",
          "type": "string"
        }
      ],
      "stateMutability": "view",
      "type": "function"
    },
    {
      "inputs": [],
      "name": "owner",
      "outputs": [
        {
          "internalType": "address",
          "name": "",
          "type": "address"
        }
      ],
      "stateMutability": "view",
      "type": "function"
    },
    {
      "inputs": [
        {
          "internalType": "uint256",
          "name": "tokenId",
          "type": "uint256"
        }
      ],
      "name": "ownerOf",
      "outputs": [
        {
          "internalType": "address",
          "name": "",
          "type": "address"
        }
      ],
      "stateMutability": "view",
      "type": "function"
    },
    {
      "inputs": [],
      "name": "renounceOwnership",
      "outputs": [],
      "stateMutability": "nonpayable",
      "type": "function"
    },
    {
      "inputs": [
        {
          "internalType": "uint256",
          "name": "",
          "type": "uint256"
        },
        {
          "internalType": "uint256",
          "name": "_salePrice",
          "type": "uint256"
        }
      ],
      "name": "royaltyInfo",
      "outputs": [
        {
          "internalType": "address",
          "name": "receiver",
          "type": "address"
        },
        {
          "internalType": "uint256",
          "name": "royaltyAmount",
          "type": "uint256"
        }
      ],
      "stateMutability": "view",
      "type": "function"
    },
    {
      "inputs": [
        {
          "internalType": "address",
          "name": "from",
          "type": "address"
        },
        {
          "internalType": "address",
          "name": "to",
          "type": "address"
        },
        {
          "internalType": "uint256",
          "name": "tokenId",
          "type": "uint256"
        }
      ],
      "name": "safeTransferFrom",
      "outputs": [],
      "stateMutability": "nonpayable",
      "type": "function"
    },
    {
      "inputs": [
        {
          "internalType": "address",
          "name": "from",
          "type": "address"
        },
        {
          "internalType": "address",
          "name": "to",
          "type": "address"
        },
        {
          "internalType": "uint256",
          "name": "tokenId",
          "type": "uint256"
        },
        {
          "internalType": "bytes",
          "name": "_data",
          "type": "bytes"
        }
      ],
      "name": "safeTransferFrom",
      "outputs": [],
      "stateMutability": "nonpayable",
      "type": "function"
    },
    {
      "inputs": [
        {
          "internalType": "address",
          "name": "operator",
          "type": "address"
        },
        {
          "internalType": "bool",
          "name": "approved",
          "type": "bool"
        }
      ],
      "name": "setApprovalForAll",
      "outputs": [],
      "stateMutability": "nonpayable",
      "type": "function"
    },
    {
      "inputs": [
        {
          "internalType": "address",
          "name": "minter",
          "type": "address"
        },
        {
          "internalType": "bool",
          "name": "isApproved",
          "type": "bool"
        }
      ],
      "name": "setIsApprovedMinter",
      "outputs": [],
      "stateMutability": "nonpayable",
      "type": "function"
    },
    {
      "inputs": [
        {
          "internalType": "bytes4",
          "name": "interfaceId",
          "type": "bytes4"
        }
      ],
      "name": "supportsInterface",
      "outputs": [
        {
          "internalType": "bool",
          "name": "",
          "type": "bool"
        }
      ],
      "stateMutability": "view",
      "type": "function"
    },
    {
      "inputs": [],
      "name": "symbol",
      "outputs": [
        {
          "internalType": "string",
          "name": "",
          "type": "string"
        }
      ],
      "stateMutability": "view",
      "type": "function"
    },
    {
      "inputs": [
        {
          "internalType": "uint256",
          "name": "tokenId",
          "type": "uint256"
        }
      ],
      "name": "tokenURI",
      "outputs": [
        {
          "internalType": "string",
          "name": "",
          "type": "string"
        }
      ],
      "stateMutability": "view",
      "type": "function"
    },
    {
      "inputs": [
        {
          "internalType": "address",
          "name": "from",
          "type": "address"
        },
        {
          "internalType": "address",
          "name": "to",
          "type": "address"
        },
        {
          "internalType": "uint256",
          "name": "tokenId",
          "type": "uint256"
        }
      ],
      "name": "transferFrom",
      "outputs": [],
      "stateMutability": "nonpayable",
      "type": "function"
    },
    {
      "inputs": [
        {
          "internalType": "address",
          "name": "newOwner",
          "type": "address"
        }
      ],
      "name": "transferOwnership",
      "outputs": [],
      "stateMutability": "nonpayable",
      "type": "function"
    }
  ],
  "transactionHash": "0xe4e31ee4fb0a1dd4eddf9783823cb4b86ff11e9ce46219fdc9390f3ff3068e9b",
  "args": [
    "Algo Lite",
    "ALGLT",
    "https://buo7dhteahrnurg7h3oysx3ldezloaopronrtnyssqfbvqsamqfa.arweave.net/DR3xnmQB4tpE3z7diV9rGTK3Ac-Lmxm3EpQKGsJAZAo/",
    2400,
    "0x83CC26027b90cb66D9d23f94Ff17504767CD3696"
  ],
  "solcInputHash": "fbf622f0100ebcc6d46ba9d66c14d18c",
  "bytecode": "0x60806040523480156200001157600080fd5b506040516200220938038062002209833981016040819052620000349162000609565b8451859085906200004d90600090602085019062000406565b5080516200006390600190602084019062000406565b505050620000806200007a6200012460201b60201c565b62000128565b82516200009590600790602086019062000406565b508161ffff166001600160401b03811115620000b557620000b562000826565b604051908082528060200260200182016040528015620000df578160200160208202803683370190505b508051620000f69160089160209091019062000495565b50620001016200017a565b6200010c81620001b7565b6200011981600062000293565b50505050506200083c565b3390565b600680546001600160a01b038381166001600160a01b0319831681179093556040519116919082907f8be0079c531659141344cd1fd0a4f28419497f9722a3daafe3b4186f6b6457e090600090a35050565b334241445a3a60076040516020016200019a9796959493929190620006d8565b60408051601f198184030181529190528051602090910120600a55565b33620001c2620003db565b6001600160a01b0316146200021e5760405162461bcd60e51b815260206004820181905260248201527f4f776e61626c653a2063616c6c6572206973206e6f7420746865206f776e657260448201526064015b60405180910390fd5b6001600160a01b038116620002855760405162461bcd60e51b815260206004820152602660248201527f4f776e61626c653a206e6577206f776e657220697320746865207a65726f206160448201526564647265737360d01b606482015260840162000215565b620002908162000128565b50565b6001600160a01b038216620002eb5760405162461bcd60e51b815260206004820181905260248201527f4552433732313a206d696e7420746f20746865207a65726f2061646472657373604482015260640162000215565b6000818152600260205260409020546001600160a01b031615620003525760405162461bcd60e51b815260206004820152601c60248201527f4552433732313a20746f6b656e20616c7265616479206d696e74656400000000604482015260640162000215565b6001600160a01b03821660009081526003602052604081208054600192906200037d908490620007c2565b909155505060008181526002602052604080822080546001600160a01b0319166001600160a01b03861690811790915590518392907fddf252ad1be2c89b69c2b068fc378daa952ba7f163c4a11628f55a4df523b3ef908290a45050565b6000620003f2620003f760201b62000b8b1760201c565b905090565b6006546001600160a01b031690565b8280546200041490620007e9565b90600052602060002090601f01602090048101928262000438576000855562000483565b82601f106200045357805160ff191683800117855562000483565b8280016001018555821562000483579182015b828111156200048357825182559160200191906001019062000466565b50620004919291506200053b565b5090565b82805482825590600052602060002090600f01601090048101928215620004835791602002820160005b838211156200050157835183826101000a81548161ffff021916908361ffff1602179055509260200192600201602081600101049283019260010302620004bf565b8015620005315782816101000a81549061ffff021916905560020160208160010104928301926001030262000501565b5050620004919291505b5b808211156200049157600081556001016200053c565b600082601f8301126200056457600080fd5b81516001600160401b038082111562000581576200058162000826565b604051601f8301601f19908116603f01168101908282118183101715620005ac57620005ac62000826565b81604052838152602092508683858801011115620005c957600080fd5b600091505b83821015620005ed5785820183015181830184015290820190620005ce565b83821115620005ff5760008385830101525b9695505050505050565b600080600080600060a086880312156200062257600080fd5b85516001600160401b03808211156200063a57600080fd5b6200064889838a0162000552565b965060208801519150808211156200065f57600080fd5b6200066d89838a0162000552565b955060408801519150808211156200068457600080fd5b50620006938882890162000552565b935050606086015161ffff81168114620006ac57600080fd5b60808701519092506001600160a01b0381168114620006ca57600080fd5b809150509295509295909350565b600060018060601b0319808a60601b168352886014840152808860601b1660348401525085604883015284606883015283608883015260a86000845481600182811c9150808316806200072c57607f831692505b60208084108214156200074d57634e487b7160e01b86526022600452602486fd5b8180156200076457600181146200077a57620007ad565b60ff1986168a890152848a0188019650620007ad565b60008b81526020902060005b86811015620007a35781548c82018b015290850190830162000786565b505087858b010196505b50949f9e505050505050505050505050505050565b60008219821115620007e457634e487b7160e01b600052601160045260246000fd5b500190565b600181811c90821680620007fe57607f821691505b602082108114156200082057634e487b7160e01b600052602260045260246000fd5b50919050565b634e487b7160e01b600052604160045260246000fd5b6119bd806200084c6000396000f3fe608060405234801561001057600080fd5b50600436106101115760003560e01c80636a627842116100ad578063a22cb46511610071578063a22cb4651461025d578063b88d4fde14610270578063c87b56dd14610283578063e985e9c514610296578063f2fde38b146102a957600080fd5b80636a6278421461021157806370a0823114610224578063715018a6146102455780638da5cb5b1461024d57806395d89b411461025557600080fd5b806301ffc9a71461011657806306fdde031461013e578063081812fc14610153578063095ea7b31461017e57806323b872dd146101935780632a55205a146101a657806341fa0ce3146101d857806342842e0e146101eb5780636352211e146101fe575b600080fd5b61012961012436600461151d565b6102bc565b60405190151581526020015b60405180910390f35b610146610302565b6040516101359190611720565b610166610161366004611557565b610394565b6040516001600160a01b039091168152602001610135565b61019161018c3660046114f3565b610421565b005b6101916101a136600461139f565b610532565b6101b96101b4366004611570565b610563565b604080516001600160a01b039093168352602083019190915201610135565b6101916101e63660046114b7565b610591565b6101916101f936600461139f565b6105eb565b61016661020c366004611557565b610606565b61019161021f36600461134a565b61067d565b61023761023236600461134a565b610870565b604051908152602001610135565b6101916108f7565b610166610932565b610146610941565b61019161026b3660046114b7565b610950565b61019161027e3660046113db565b610a11565b610146610291366004611557565b610a49565b6101296102a436600461136c565b610abd565b6101916102b736600461134a565b610aeb565b600063e7c7b31960e01b6001600160e01b0319831614806102ed575063152a902d60e11b6001600160e01b03198316145b806102fc57506102fc82610b9a565b92915050565b60606000805461031190611899565b80601f016020809104026020016040519081016040528092919081815260200182805461033d90611899565b801561038a5780601f1061035f5761010080835404028352916020019161038a565b820191906000526020600020905b81548152906001019060200180831161036d57829003601f168201915b5050505050905090565b600061039f82610bea565b6104055760405162461bcd60e51b815260206004820152602c60248201527f4552433732313a20617070726f76656420717565727920666f72206e6f6e657860448201526b34b9ba32b73a103a37b5b2b760a11b60648201526084015b60405180910390fd5b506000908152600460205260409020546001600160a01b031690565b600061042c82610606565b9050806001600160a01b0316836001600160a01b0316141561049a5760405162461bcd60e51b815260206004820152602160248201527f4552433732313a20617070726f76616c20746f2063757272656e74206f776e656044820152603960f91b60648201526084016103fc565b336001600160a01b03821614806104b657506104b68133610abd565b6105235760405162461bcd60e51b815260206004820152603860248201527f4552433732313a20617070726f76652063616c6c6572206973206e6f74206f776044820152771b995c881b9bdc88185c1c1c9bdd995908199bdc88185b1b60421b60648201526084016103fc565b61052d8383610c07565b505050565b61053c3382610c75565b6105585760405162461bcd60e51b81526004016103fc906117ba565b61052d838383610d3f565b60008061056e610932565b61271061057c856032611837565b6105869190611823565b915091509250929050565b3361059a610932565b6001600160a01b0316146105c05760405162461bcd60e51b81526004016103fc90611785565b6001600160a01b03919091166000908152600960205260409020805460ff1916911515919091179055565b61052d83838360405180602001604052806000815250610a11565b6000818152600260205260408120546001600160a01b0316806102fc5760405162461bcd60e51b815260206004820152602960248201527f4552433732313a206f776e657220717565727920666f72206e6f6e657869737460448201526832b73a103a37b5b2b760b91b60648201526084016103fc565b3360009081526009602052604090205460ff16806106aa57503361069f610932565b6001600160a01b0316145b6106e55760405162461bcd60e51b815260206004820152600c60248201526b1b9bdd08185c1c1c9bdd995960a21b60448201526064016103fc565b60085461071f5760405162461bcd60e51b815260206004820152600860248201526714dbdb19081bdd5d60c21b60448201526064016103fc565b610727610edf565b600854600a54600091610739916118ef565b905060006008828154811061075057610750611945565b60009182526020909120601082040154600f9091166002026101000a900461ffff1690508061077c5750805b60085460009061078e90600190611856565b9050600060088261ffff16815481106107a9576107a9611945565b60009182526020909120601082040154600f9091166002026101000a900461ffff169050806107d55750805b80600885815481106107e9576107e9611945565b90600052602060002090601091828204019190066002026101000a81548161ffff021916908361ffff16021790555060088054806108295761082961192f565b600082815260209020601060001990920191820401805461ffff6002600f8516026101000a021916905590556108698561086485600161180b565b610f1a565b5050505050565b60006001600160a01b0382166108db5760405162461bcd60e51b815260206004820152602a60248201527f4552433732313a2062616c616e636520717565727920666f7220746865207a65604482015269726f206164647265737360b01b60648201526084016103fc565b506001600160a01b031660009081526003602052604090205490565b33610900610932565b6001600160a01b0316146109265760405162461bcd60e51b81526004016103fc90611785565b6109306000610f38565b565b600061093c610b8b565b905090565b60606001805461031190611899565b6001600160a01b0382163314156109a55760405162461bcd60e51b815260206004820152601960248201527822a9219b99189d1030b8383937bb32903a379031b0b63632b960391b60448201526064016103fc565b3360008181526005602090815260408083206001600160a01b03871680855290835292819020805460ff191686151590811790915590519081529192917f17307eab39ab6107e8899845ad3d59bd9653f200f220920489ca2b5937696c31910160405180910390a35050565b610a1b3383610c75565b610a375760405162461bcd60e51b81526004016103fc906117ba565b610a4384848484610f8a565b50505050565b6060610a5482610bea565b610a8b5760405162461bcd60e51b81526020600482015260086024820152672727902a27a5a2a760c11b60448201526064016103fc565b6007610a9683610fbd565b604051602001610aa79291906116ae565b6040516020818303038152906040529050919050565b6001600160a01b03918216600090815260056020908152604080832093909416825291909152205460ff1690565b33610af4610932565b6001600160a01b031614610b1a5760405162461bcd60e51b81526004016103fc90611785565b6001600160a01b038116610b7f5760405162461bcd60e51b815260206004820152602660248201527f4f776e61626c653a206e6577206f776e657220697320746865207a65726f206160448201526564647265737360d01b60648201526084016103fc565b610b8881610f38565b50565b6006546001600160a01b031690565b60006001600160e01b031982166380ac58cd60e01b1480610bcb57506001600160e01b03198216635b5e139f60e01b145b806102fc57506301ffc9a760e01b6001600160e01b03198316146102fc565b6000908152600260205260409020546001600160a01b0316151590565b600081815260046020526040902080546001600160a01b0319166001600160a01b0384169081179091558190610c3c82610606565b6001600160a01b03167f8c5be1e5ebec7d5bd14f71427d1e84f3dd0314c0f7b2291e5b200ac8c7c3b92560405160405180910390a45050565b6000610c8082610bea565b610ce15760405162461bcd60e51b815260206004820152602c60248201527f4552433732313a206f70657261746f7220717565727920666f72206e6f6e657860448201526b34b9ba32b73a103a37b5b2b760a11b60648201526084016103fc565b6000610cec83610606565b9050806001600160a01b0316846001600160a01b03161480610d275750836001600160a01b0316610d1c84610394565b6001600160a01b0316145b80610d375750610d378185610abd565b949350505050565b826001600160a01b0316610d5282610606565b6001600160a01b031614610dba5760405162461bcd60e51b815260206004820152602960248201527f4552433732313a207472616e73666572206f6620746f6b656e2074686174206960448201526839903737ba1037bbb760b91b60648201526084016103fc565b6001600160a01b038216610e1c5760405162461bcd60e51b8152602060048201526024808201527f4552433732313a207472616e7366657220746f20746865207a65726f206164646044820152637265737360e01b60648201526084016103fc565b610e27600082610c07565b6001600160a01b0383166000908152600360205260408120805460019290610e50908490611856565b90915550506001600160a01b0382166000908152600360205260408120805460019290610e7e90849061180b565b909155505060008181526002602052604080822080546001600160a01b0319166001600160a01b0386811691821790925591518493918716917fddf252ad1be2c89b69c2b068fc378daa952ba7f163c4a11628f55a4df523b3ef91a4505050565b334241445a3a6007604051602001610efd9796959493929190611658565b60408051601f198184030181529190528051602090910120600a55565b610f348282604051806020016040528060008152506110bb565b5050565b600680546001600160a01b038381166001600160a01b0319831681179093556040519116919082907f8be0079c531659141344cd1fd0a4f28419497f9722a3daafe3b4186f6b6457e090600090a35050565b610f95848484610d3f565b610fa1848484846110ee565b610a435760405162461bcd60e51b81526004016103fc90611733565b606081610fe15750506040805180820190915260018152600360fc1b602082015290565b8160005b811561100b5780610ff5816118d4565b91506110049050600a83611823565b9150610fe5565b60008167ffffffffffffffff8111156110265761102661195b565b6040519080825280601f01601f191660200182016040528015611050576020820181803683370190505b5090505b8415610d3757611065600183611856565b9150611072600a866118ef565b61107d90603061180b565b60f81b81838151811061109257611092611945565b60200101906001600160f81b031916908160001a9053506110b4600a86611823565b9450611054565b6110c583836111fb565b6110d260008484846110ee565b61052d5760405162461bcd60e51b81526004016103fc90611733565b60006001600160a01b0384163b156111f057604051630a85bd0160e11b81526001600160a01b0385169063150b7a02906111329033908990889088906004016116e3565b602060405180830381600087803b15801561114c57600080fd5b505af192505050801561117c575060408051601f3d908101601f191682019092526111799181019061153a565b60015b6111d6573d8080156111aa576040519150601f19603f3d011682016040523d82523d6000602084013e6111af565b606091505b5080516111ce5760405162461bcd60e51b81526004016103fc90611733565b805181602001fd5b6001600160e01b031916630a85bd0160e11b149050610d37565b506001949350505050565b6001600160a01b0382166112515760405162461bcd60e51b815260206004820181905260248201527f4552433732313a206d696e7420746f20746865207a65726f206164647265737360448201526064016103fc565b61125a81610bea565b156112a75760405162461bcd60e51b815260206004820152601c60248201527f4552433732313a20746f6b656e20616c7265616479206d696e7465640000000060448201526064016103fc565b6001600160a01b03821660009081526003602052604081208054600192906112d090849061180b565b909155505060008181526002602052604080822080546001600160a01b0319166001600160a01b03861690811790915590518392907fddf252ad1be2c89b69c2b068fc378daa952ba7f163c4a11628f55a4df523b3ef908290a45050565b80356001600160a01b038116811461134557600080fd5b919050565b60006020828403121561135c57600080fd5b6113658261132e565b9392505050565b6000806040838503121561137f57600080fd5b6113888361132e565b91506113966020840161132e565b90509250929050565b6000806000606084860312156113b457600080fd5b6113bd8461132e565b92506113cb6020850161132e565b9150604084013590509250925092565b600080600080608085870312156113f157600080fd5b6113fa8561132e565b93506114086020860161132e565b925060408501359150606085013567ffffffffffffffff8082111561142c57600080fd5b818701915087601f83011261144057600080fd5b8135818111156114525761145261195b565b604051601f8201601f19908116603f0116810190838211818310171561147a5761147a61195b565b816040528281528a602084870101111561149357600080fd5b82602086016020830137600060208483010152809550505050505092959194509250565b600080604083850312156114ca57600080fd5b6114d38361132e565b9150602083013580151581146114e857600080fd5b809150509250929050565b6000806040838503121561150657600080fd5b61150f8361132e565b946020939093013593505050565b60006020828403121561152f57600080fd5b813561136581611971565b60006020828403121561154c57600080fd5b815161136581611971565b60006020828403121561156957600080fd5b5035919050565b6000806040838503121561158357600080fd5b50508035926020909101359150565b600081518084526115aa81602086016020860161186d565b601f01601f19169290920160200192915050565b8054600090600181811c90808316806115d857607f831692505b60208084108214156115fa57634e487b7160e01b600052602260045260246000fd5b81801561160e576001811461161f5761164c565b60ff1986168952848901965061164c565b60008881526020902060005b868110156116445781548b82015290850190830161162b565b505084890196505b50505050505092915050565b60006bffffffffffffffffffffffff19808a60601b168352886014840152808860601b166034840152508560488301528460688301528360888301526116a160a88301846115be565b9998505050505050505050565b60006116ba82856115be565b83516116ca81836020880161186d565b64173539b7b760d91b9101908152600501949350505050565b6001600160a01b038581168252841660208201526040810183905260806060820181905260009061171690830184611592565b9695505050505050565b6020815260006113656020830184611592565b60208082526032908201527f4552433732313a207472616e7366657220746f206e6f6e20455243373231526560408201527131b2b4bb32b91034b6b83632b6b2b73a32b960711b606082015260800190565b6020808252818101527f4f776e61626c653a2063616c6c6572206973206e6f7420746865206f776e6572604082015260600190565b60208082526031908201527f4552433732313a207472616e736665722063616c6c6572206973206e6f74206f6040820152701ddb995c881b9bdc88185c1c1c9bdd9959607a1b606082015260800190565b6000821982111561181e5761181e611903565b500190565b60008261183257611832611919565b500490565b600081600019048311821515161561185157611851611903565b500290565b60008282101561186857611868611903565b500390565b60005b83811015611888578181015183820152602001611870565b83811115610a435750506000910152565b600181811c908216806118ad57607f821691505b602082108114156118ce57634e487b7160e01b600052602260045260246000fd5b50919050565b60006000198214156118e8576118e8611903565b5060010190565b6000826118fe576118fe611919565b500690565b634e487b7160e01b600052601160045260246000fd5b634e487b7160e01b600052601260045260246000fd5b634e487b7160e01b600052603160045260246000fd5b634e487b7160e01b600052603260045260246000fd5b634e487b7160e01b600052604160045260246000fd5b6001600160e01b031981168114610b8857600080fdfea26469706673582212202554a5d2917f131d217eea7296a8d644a2095a360ddfdad69fda3f2f1a7d707664736f6c63430008060033",
  "devdoc": {
    "author": "Iain Nash @isiain",
    "custom:warning": "UNAUDITED: Use at own risk",
    "details": "Contract for Algo Lite Project by @jawn +",
    "kind": "dev",
    "methods": {
      "approve(address,uint256)": {
        "details": "See {IERC721-approve}."
      },
      "balanceOf(address)": {
        "details": "See {IERC721-balanceOf}."
      },
      "constructor": {
        "details": "Sets up the serial contract with a name, symbol, and an initial allowed creator.Mints the genesis token to the deployer.",
        "params": {
          "_maxAvailableId": "Max number that can be minted beyond 0",
          "_metadataBase": "Base URL of metadata",
          "multisigOwner": "New owner after deploying",
          "name": "Name of NFT contract",
          "symbol": "Symbol of NFT contract"
        }
      },
      "getApproved(uint256)": {
        "details": "See {IERC721-getApproved}."
      },
      "isApprovedForAll(address,address)": {
        "details": "See {IERC721-isApprovedForAll}."
      },
      "mint(address)": {
        "details": "Authenticated mint function that mints a random available NFT",
        "params": {
          "to": "Address to mint NFT to"
        }
      },
      "name()": {
        "details": "See {IERC721Metadata-name}."
      },
      "ownerOf(uint256)": {
        "details": "See {IERC721-ownerOf}."
      },
      "renounceOwnership()": {
        "details": "Leaves the contract without owner. It will not be possible to call `onlyOwner` functions anymore. Can only be called by the current owner. NOTE: Renouncing ownership will leave the contract without an owner, thereby removing any functionality that is only available to the owner."
      },
      "royaltyInfo(uint256,uint256)": {
        "details": "Returns 5% royalty to owner"
      },
      "safeTransferFrom(address,address,uint256)": {
        "details": "See {IERC721-safeTransferFrom}."
      },
      "safeTransferFrom(address,address,uint256,bytes)": {
        "details": "See {IERC721-safeTransferFrom}."
      },
      "setApprovalForAll(address,bool)": {
        "details": "See {IERC721-setApprovalForAll}."
      },
      "setIsApprovedMinter(address,bool)": {
        "details": "Admin owner-only function to update the list of approved minters",
        "params": {
          "isApproved": "if given minter is approved",
          "minter": "list of addresses that are approved minters"
        }
      },
      "supportsInterface(bytes4)": {
        "params": {
          "interfaceId": "interface id to match to erc165 standard"
        }
      },
      "symbol()": {
        "details": "See {IERC721Metadata-symbol}."
      },
      "tokenURI(uint256)": {
        "details": "Returns tokenURI for given token that exists",
        "params": {
          "tokenId": "id of token to retrieve metadata for"
        }
      },
      "transferFrom(address,address,uint256)": {
        "details": "See {IERC721-transferFrom}."
      },
      "transferOwnership(address)": {
        "details": "Transfers ownership of the contract to a new account (`newOwner`). Can only be called by the current owner."
      }
    },
    "version": 1
  },
  "userdoc": {
    "kind": "user",
    "methods": {},
    "version": 1
  },
  "storageLayout": {
    "storage": [
      {
        "astId": 843,
        "contract": "contracts/AlgoLite.sol:AlgoLite",
        "label": "_name",
        "offset": 0,
        "slot": "0",
        "type": "t_string_storage"
      },
      {
        "astId": 845,
        "contract": "contracts/AlgoLite.sol:AlgoLite",
        "label": "_symbol",
        "offset": 0,
        "slot": "1",
        "type": "t_string_storage"
      },
      {
        "astId": 849,
        "contract": "contracts/AlgoLite.sol:AlgoLite",
        "label": "_owners",
        "offset": 0,
        "slot": "2",
        "type": "t_mapping(t_uint256,t_address)"
      },
      {
        "astId": 853,
        "contract": "contracts/AlgoLite.sol:AlgoLite",
        "label": "_balances",
        "offset": 0,
        "slot": "3",
        "type": "t_mapping(t_address,t_uint256)"
      },
      {
        "astId": 857,
        "contract": "contracts/AlgoLite.sol:AlgoLite",
        "label": "_tokenApprovals",
        "offset": 0,
        "slot": "4",
        "type": "t_mapping(t_uint256,t_address)"
      },
      {
        "astId": 863,
        "contract": "contracts/AlgoLite.sol:AlgoLite",
        "label": "_operatorApprovals",
        "offset": 0,
        "slot": "5",
        "type": "t_mapping(t_address,t_mapping(t_address,t_bool))"
      },
      {
        "astId": 7,
        "contract": "contracts/AlgoLite.sol:AlgoLite",
        "label": "_owner",
        "offset": 0,
        "slot": "6",
        "type": "t_address"
      },
      {
        "astId": 2379,
        "contract": "contracts/AlgoLite.sol:AlgoLite",
        "label": "metadataBase",
        "offset": 0,
        "slot": "7",
        "type": "t_string_storage"
      },
      {
        "astId": 2383,
        "contract": "contracts/AlgoLite.sol:AlgoLite",
        "label": "availableIds",
        "offset": 0,
        "slot": "8",
        "type": "t_array(t_uint16)dyn_storage"
      },
      {
        "astId": 2388,
        "contract": "contracts/AlgoLite.sol:AlgoLite",
        "label": "approvedMinters",
        "offset": 0,
        "slot": "9",
        "type": "t_mapping(t_address,t_bool)"
      },
      {
        "astId": 2391,
        "contract": "contracts/AlgoLite.sol:AlgoLite",
        "label": "entropyBase",
        "offset": 0,
        "slot": "10",
        "type": "t_bytes32"
      }
    ],
    "types": {
      "t_address": {
        "encoding": "inplace",
        "label": "address",
        "numberOfBytes": "20"
      },
      "t_array(t_uint16)dyn_storage": {
        "base": "t_uint16",
        "encoding": "dynamic_array",
        "label": "uint16[]",
        "numberOfBytes": "32"
      },
      "t_bool": {
        "encoding": "inplace",
        "label": "bool",
        "numberOfBytes": "1"
      },
      "t_bytes32": {
        "encoding": "inplace",
        "label": "bytes32",
        "numberOfBytes": "32"
      },
      "t_mapping(t_address,t_bool)": {
        "encoding": "mapping",
        "key": "t_address",
        "label": "mapping(address => bool)",
        "numberOfBytes": "32",
        "value": "t_bool"
      },
      "t_mapping(t_address,t_mapping(t_address,t_bool))": {
        "encoding": "mapping",
        "key": "t_address",
        "label": "mapping(address => mapping(address => bool))",
        "numberOfBytes": "32",
        "value": "t_mapping(t_address,t_bool)"
      },
      "t_mapping(t_address,t_uint256)": {
        "encoding": "mapping",
        "key": "t_address",
        "label": "mapping(address => uint256)",
        "numberOfBytes": "32",
        "value": "t_uint256"
      },
      "t_mapping(t_uint256,t_address)": {
        "encoding": "mapping",
        "key": "t_uint256",
        "label": "mapping(uint256 => address)",
        "numberOfBytes": "32",
        "value": "t_address"
      },
      "t_string_storage": {
        "encoding": "bytes",
        "label": "string",
        "numberOfBytes": "32"
      },
      "t_uint16": {
        "encoding": "inplace",
        "label": "uint16",
        "numberOfBytes": "2"
      },
      "t_uint256": {
        "encoding": "inplace",
        "label": "uint256",
        "numberOfBytes": "32"
      }
    }
  }
}